:1000000009C00EC00DC00CC00BC00AC009C008C09A
:1000100007C006C011241FBECFE9CDBF1AD067C0EC
:10002000EFCF83B7816083BF8FB583608FBD8FB5FE
:10003000806C8FBDB89A16BE089587B1836087B96A
:1000400084E886B90895369A3699FECF84B195B181
:100050000895CF93DF93CDB7DD27C450CDBF20E007
:1000600030E080E80FB6F89486BD26BD0FBED9DF1C
:10007000E4DF2FEF8BE49DE1215080409040E1F7D9
:1000800000C00000B99AC1981C821B821A82198292
:10009000BA98C29A10E0D7DF803AE1E09E0710F4E8
:1000A000C19A01C0C1982B813C812F5F3F4F3C8397
:1000B0002B83EFE5F9E03197F1F700C000008B3AB0
:1000C000914020F0112369F011500BC0133D48F40A
:1000D000812F90E00196833D910511F482ED90E02F
:1000E000182F16BFB299D7CF16BE10E0FBCFF894E9
:0200F000FFCF40
:00000001FF
