:1000000009C016C015C014C013C012C011C010C062
:100010000FC00EC011241FBECFE9CDBF20E0A0E667
:10002000B0E001C01D92A536B207E1F7F4D096C149
:10003000E7CF662311F0C49A0895C498089583B752
:10004000816083BF8FB583608FBD8FB5806C8FBD9E
:10005000B89A16BE089580E487B987B1836087B9DE
:1000600084E886B90895369A3699FECF84B195B161
:100070000895EF92FF920F931F93CF93DF93E82E93
:100080009091600081E0892780936000609160001A
:1000900082E0CFDF87E592E00197F1F700C0000032
:1000A0006091600082E0C5DF87E592E00197F1F79B
:1000B00000C00000C0E0D0E010E001E0F12C809131
:1000C00060008027809360006091600082E0B1DF73
:1000D00087E592E00197F1F700C00000C7010C2E00
:1000E00002C0959587950A94E2F780FF06C01F5FCE
:1000F000809160008027809360006091600082E0C2
:1001000098DF87E592E00197F1F700C000002196A3
:10011000C830D105A1F680916000C1E08C278093A2
:1001200060006091600082E084DF87E592E00197E3
:10013000F1F700C0000010FD05C080916000C827E5
:10014000C09360006091600082E073DF87E592E019
:100150000197F1F700C0000080916000C1E08C279A
:10016000809360006091600082E063DF87E592E049
:100170000197F1F700C0000080916000C827C0938C
:1001800060006091600082E054DF87E592E00197B3
:10019000F1F700C00000DF91CF911F910F91FF9008
:1001A000EF900895AF92BF92CF92DF92EF92FF92BD
:1001B0001F93CF93DF937C016B018FE090E0C49A93
:1001C000E7E5F2E03197F1F700C00000C498E7E5F9
:1001D000F2E03197F1F700C00000019781F710922B
:1001E0006000E70110E0CE018E199F098C159D0576
:1001F0003CF45E0189913DDFF50180811827F3CF42
:10020000812FDF91CF911F91FF90EF90DF90CF90E2
:10021000BF90AF902ECFCF93DF93CDB7DD27C350E4
:10022000CDBF20E030E080E80FB6F89486BD26BD53
:100230000FBE11DFBC9A1B82FF24FA9482E0882E45
:10024000772473949EE4C92E93E0D92E25E0A22E44
:10025000B12C33E0932E44E0E42E05DF873A914041
:1002600008F41B828B81813081F018F0823009F113
:10027000F4CFF9DE883A914080F37B828FEB9DE5E5
:100280000197F1F700C00000E8CF8983FA8204E10A
:1002900010E062E070E0CE01019684DF8FEB9DE517
:1002A0000197F1F700C000000150110991F78B820E
:1002B000D4CFD9DE20916300309164003093620086
:1002C0002093610090936400809363009601281B43
:1002D000390BC901B5011BD0603871053CF4603899
:1002E0003FEF73072CF460E87FEF02C06FE770E028
:1002F00099826A8362E070E0CE01019653DFE98261
:10030000FA8262E070E0CE0101964CDFA6CF97FB47
:10031000072E16F4009406D077FD08D00BD007FC0A
:1003200005D03EF4909581959F4F08957095619505
:100330007F4F0895AA1BBB1B51E107C0AA1FBB1F1B
:10034000A617B70710F0A61BB70B881F991F5A9561
:10035000A9F780959095BC01CD010895F894FFCF41
:00000001FF
